{
  "contractName": "Sanyangsam",
  "abi": [
    {
      "anonymous": false,
      "inputs": [
        {
          "indexed": false,
          "internalType": "string",
          "name": "hashString",
          "type": "string"
        }
      ],
      "name": "AddHashValue",
      "type": "event"
    },
    {
      "constant": false,
      "inputs": [
        {
          "internalType": "string",
          "name": "_hash",
          "type": "string"
        }
      ],
      "name": "addHashValue",
      "outputs": [],
      "payable": false,
      "stateMutability": "nonpayable",
      "type": "function"
    }
  ],
  "bytecode": "0x608060405234801561001057600080fd5b50610299806100206000396000f3fe608060405234801561001057600080fd5b506004361061002b5760003560e01c8063242ab44714610030575b600080fd5b6100e96004803603602081101561004657600080fd5b810190808035906020019064010000000081111561006357600080fd5b82018360208201111561007557600080fd5b8035906020019184600183028401116401000000008311171561009757600080fd5b91908080601f016020809104026020016040519081016040528093929190818152602001838380828437600081840152601f19601f8201169050808301925050505050505091929192905050506100eb565b005b80600090805190602001906101019291906101bf565b507f5a7f0bf09572529d66265fceeaa79c2508cc0f9a0f904f6f95e87f5885440837600060405180806020018281038252838181546001816001161561010002031660029004815260200191508054600181600116156101000203166002900480156101ae5780601f10610183576101008083540402835291602001916101ae565b820191906000526020600020905b81548152906001019060200180831161019157829003601f168201915b50509250505060405180910390a150565b828054600181600116156101000203166002900490600052602060002090601f016020900481019282601f1061020057805160ff191683800117855561022e565b8280016001018555821561022e579182015b8281111561022d578251825591602001919060010190610212565b5b50905061023b919061023f565b5090565b61026191905b8082111561025d576000816000905550600101610245565b5090565b9056fea265627a7a72315820ef590de5278f65ebef4b497b9c3c2f6be7187702b65b9b1ac54b678a5fbcf99b64736f6c63430005100032",
  "source": "// SPDX-License-Identifier: MIT\r\npragma solidity >=0.4.21 <0.7.0;\r\n\r\ncontract Sanyangsam {\r\n\r\n    string hashValue;\r\n\r\n    event AddHashValue(string hashString);\r\n\r\n    function addHashValue(string memory _hash) public {\r\n        hashValue = _hash;\r\n\r\n        emit AddHashValue(hashValue);\r\n    }\r\n}",
  "sourcePath": "C:/Users/PayD/Desktop/truffle-test/contracts/Sanyangsam.sol",
  "compiler": {
    "name": "solc",
    "version": "0.5.16+commit.9c3226ce.Emscripten.clang"
  },
  "schemaVersion": "3.2.3",
  "updatedAt": "2020-09-22T09:01:16.058Z",
  "networkType": "ethereum",
  "devdoc": {
    "methods": {}
  },
  "userdoc": {
    "methods": {}
  }
}